:020000040800F2
:10000000600600206D0100087501000877010008F6
:10001000790100087B0100087D0100080000000054
:100020000000000000000000000000007F01000848
:10003000810100080000000083010008850100081C
:100040008701000887010008870100088701000870
:100050008701000887010008870100088701000860
:1000600087010008870100088701000831020008A5
:100070006102000891020008C1020008F1020008B4
:1000800021030008510300088701000887010008C8
:100090008701000887010008870100088701000820
:1000A0008701000887010008870100088701000810
:1000B0008701000887010008870100088701000800
:1000C00087010008870100088701000887010008F0
:1000D00087010008870100088701000887010008E0
:1000E00087010008870100088701000800F002F876
:1000F00000F02CF80AA090E8000C82448344AAF196
:100100000107DA4501D100F021F8AFF2090EBAE893
:100110000F0013F0010F18BFFB1A43F0010318473B
:10012000E4080000F4080000002300240025002655
:10013000103A28BF78C1FBD8520728BF30C148BF4A
:100140000B6070471FB51FBD10B510BD00F031F832
:100150001146FFF7F7FF00F0EFFB00F04FF803B494
:10016000FFF7F2FF03BC00F057F800000948804792
:1001700009480047FEE7FEE7FEE7FEE7FEE7FEE789
:10018000FEE7FEE7FEE7FEE704480549054A064BA1
:1001900070470000A5070008ED000008600000207F
:1001A0006006002060020020600200207047704757
:1001B0007047754600F02CF8AE4605006946534678
:1001C00020F00700854618B020B5FFF7DDFFBDE839
:1001D00020404FF000064FF000074FF000084FF0AE
:1001E000000BAC46ACE8C009ACE8C009ACE8C009FB
:1001F000ACE8C00921F007018D46704710B50446F0
:10020000AFF300802046BDE81040FFF7A8BF000014
:10021000004870470000002001491820ABBEFEE7EF
:10022000260002007047000081B0009001B07047C6
:1002300080B582B00020C4F20200006800F00F0018
:10024000019001980421C4F2020108600198FFF7AF
:10025000EBFF02B080BD000081B0009001B070479C
:1002600080B582B00020C4F202000068C0F3031021
:100270000190019800010421C4F202010860019874
:10028000FFF7EAFF02B080BD81B0009001B0704777
:1002900080B582B00020C4F202000068C0F30320E1
:1002A0000190019800020421C4F202010860019843
:1002B000FFF7EAFF02B080BD81B0009001B0704747
:1002C00080B582B00020C4F202000068C0F30330A1
:1002D0000190019800030421C4F202010860019812
:1002E000FFF7EAFF02B080BD81B0009001B0704717
:1002F00080B582B00020C4F202000068C0F3034061
:100300000190019800040421C4F2020108600198E0
:10031000FFF7EAFF02B080BD81B0009001B07047E6
:1003200080B582B00020C4F202000068C0F3035020
:100330000190019800050421C4F2020108600198AF
:10034000FFF7EAFF02B080BD81B0009001B07047B6
:1003500080B582B00020C4F202000068C0F30360E0
:100360000190019800060421C4F20201086001987E
:10037000FFF7EAFF02B080BD88B007900691002029
:100380000590049003900290019000900698C07828
:1003900000F00F0005900698C078C006002806D52A
:1003A000FFE706988178059808430590FFE70698CF
:1003B000007800284BD0FFE70798006801900020E4
:1003C0000390FFE7039807283DD8FFE70399012032
:1003D000884002900698008802990840049004988A
:1003E000029988422AD1FFE703988000029002997F
:1003F0000F2088400090009901988843019005984B
:10040000029900FA01F10198084301900698C0781A
:10041000282806D1FFE70399012088400799486101
:100420000BE00698C078482806D1FFE70399012021
:10043000884007990861FFE7FFE7FFE7FFE70398B8
:1004400001300390BEE7019807990860FFE706981E
:100450000088B0F5807F50DBFFE707984068019087
:1004600000200390FFE70398072842D8FFE703988E
:1004700000F1080101208840029006980088029946
:10048000084004900498029988422DD1FFE7039810
:100490008000029002990F208840009000990198F6
:1004A000884301900598029900FA01F101980843E8
:1004B00001900698C078282808D1FFE7039800F13A
:1004C00008010120884007994861FFE70698C07835
:1004D000482808D1FFE7039800F10801012088406F
:1004E00007990861FFE7FFE7FFE7039801300390F2
:1004F000B9E7019807994860FFE708B07047000026
:1005000082B00190ADF80210BDF802000199486177
:1005100002B0704782B00190ADF80210BDF8020041
:100520000199086102B0704782B001908DF8031004
:100530009DF8030048B1FFE7019A41F21C01C4F2A3
:10054000020108681043086008E0019A41F21C01AA
:10055000C4F20201086890430860FFE702B07047E8
:1005600082B001908DF803109DF8030048B1FFE7B9
:10057000019A41F21801C4F20201086810430860B0
:1005800008E0019A41F21801C4F2020108689043A0
:100590000860FFE702B0704782B001908DF8031049
:1005A0009DF8030030B1FFE70199088840F0400052
:1005B000088005E00199088820F040000880FFE7E6
:1005C00002B0704782B00190ADF8021000208DF8A3
:1005D000010001980089BDF802100840000420B114
:1005E000FFE701208DF8010003E000208DF80100F5
:1005F000FFE79DF8010002B07047000082B0019053
:10060000ADF80210BDF802000199888102B0704770
:1006100083B0029001910020ADF80200029800889A
:10062000ADF80200BDF8020000F44150ADF8020040
:10063000019908884A8810438A881043CA88104361
:100640000A8910434A8910438A891043C9890143A2
:10065000BDF802000843ADF80200BDF8020002999F
:1006600008800299888B20F4006088830198008AB2
:100670000299088203B0704780B500F001F880BD90
:1006800084B000200390029041F20001C4F2020104
:10069000086840F480300860FFE741F20000C4F2CF
:1006A0000200006800F400300290039801300390CB
:1006B000FFE702990020019039B9FFE70398B0F5F0
:1006C000A06018BF01200190FFE70198C007002833
:1006D000E3D1FFE741F20000C4F2020000688003AA
:1006E000002803D5FFE70120029002E000200290DD
:1006F000FFE70298012851D1FFE742F20001C4F25E
:100700000201086840F010000860086820F0070047
:100710000860086840F00200086041F20401C4F279
:10072000020100910868086008680860086840F4E1
:1007300080600860086820F47C100860086840F455
:10074000E810086041F20001C4F20201086840F0BC
:1007500080700860FFE741F20000C4F20200006808
:100760008001002801D4FFE7F5E741F20401C4F25B
:100770000201086820F003000860086840F00200E9
:100780000860FFE741F20400C4F20200006800F0D4
:100790000C00082801D0FFE7F4E700E0FFE704B011
:1007A0007047000080B541F20002C4F202021068F6
:1007B00040F00100106041F20401C4F20201086837
:1007C0000023CFF6FF031840086010684FF6FF7350
:1007D000CFF6F66318401060106820F48020106097
:1007E000086820F4FE00086041F20801C4F202012A
:1007F0004FF41F000860FFF73FFF4EF60851CEF29E
:1008000000014FF00060086080BD000080B586B038
:100810002020ADF810000020ADF80C00ADF80A0063
:100820004FF6FF71ADF81410ADF80800ADF80400F4
:100830008020ADF812004FF48270ADF806004FF43E
:100840000070ADF80E0043F60000C4F2000001A9EC
:10085000FFF7DEFE06B080BD82B0ADF806000020D6
:10086000ADF80400FFE7BDF80400BDF806108842AB
:1008700019DAFFE70020ADF80200FFE7BDF802003B
:1008800040F6FE21884207DCFFE7FFE7BDF80200E3
:100890000130ADF80200F1E7FFE7BDF804000130D8
:1008A000ADF80400DFE702B07047000080B582B009
:1008B0004FF48050ADF8040010208DF8070003209D
:1008C0008DF806004FF40051ADF8041018218DF892
:1008D00007108DF806004FF48042ADF80420042381
:1008E0008DF807308DF80600ADF804208DF807105C
:1008F0008DF8060040F6AD01C0F6000140F600405C
:10090000C4F20100FFF738FD02B080BD80B582B0AF
:100910004FF40050ADF8040010208DF807000320BC
:100920008DF8060041F20000C4F2010001A9FFF7B2
:1009300023FD02B080BD000080B584B0002003908C
:1009400000F04EF8FFF7E2FFFFF760FFFFF7AEFFA2
:1009500000F03CF8FFE740F60040C4F201004FF41D
:100960008051FFF7D7FD43F60000C4F2000050218C
:10097000FFF744FEFFE743F60000C4F200008021C9
:10098000FFF720FE012801D1FFE7F4E740F6004021
:10099000C4F201004FF48051FFF7B2FD41F20000B4
:1009A000C4F2010000904FF400510191FFF7B2FD35
:1009B0004FF4FA700290FFF74FFF00980199FFF78C
:1009C0009FFD0298FFF748FFC5E7000080B543F69A
:1009D0000000C4F200000121FFF7DEFD80BD000031
:1009E00080B582B0102001210191FFF7B9FD019976
:1009F0000820FFF7B5FD01994FF48040FFF794FD03
:100A000002B080BD140A000800000020600600004B
:040A100028010008B1
:04000005080000ED02
:00000001FF
